{
  "contractName": "Election",
  "abi": [
    {
      "inputs": [
        {
          "internalType": "string[]",
          "name": "_nda",
          "type": "string[]"
        },
        {
          "internalType": "string[]",
          "name": "_candidates",
          "type": "string[]"
        }
      ],
      "payable": false,
      "stateMutability": "nonpayable",
      "type": "constructor"
    },
    {
      "constant": true,
      "inputs": [
        {
          "internalType": "uint256",
          "name": "",
          "type": "uint256"
        }
      ],
      "name": "candidates",
      "outputs": [
        {
          "internalType": "uint256",
          "name": "id",
          "type": "uint256"
        },
        {
          "internalType": "string",
          "name": "name",
          "type": "string"
        },
        {
          "internalType": "uint256",
          "name": "voteCount",
          "type": "uint256"
        }
      ],
      "payable": false,
      "stateMutability": "view",
      "type": "function"
    },
    {
      "constant": true,
      "inputs": [],
      "name": "candidatesCount",
      "outputs": [
        {
          "internalType": "uint256",
          "name": "",
          "type": "uint256"
        }
      ],
      "payable": false,
      "stateMutability": "view",
      "type": "function"
    },
    {
      "constant": true,
      "inputs": [],
      "name": "description",
      "outputs": [
        {
          "internalType": "string",
          "name": "",
          "type": "string"
        }
      ],
      "payable": false,
      "stateMutability": "view",
      "type": "function"
    },
    {
      "constant": true,
      "inputs": [],
      "name": "name",
      "outputs": [
        {
          "internalType": "string",
          "name": "",
          "type": "string"
        }
      ],
      "payable": false,
      "stateMutability": "view",
      "type": "function"
    },
    {
      "constant": true,
      "inputs": [
        {
          "internalType": "address",
          "name": "",
          "type": "address"
        }
      ],
      "name": "voters",
      "outputs": [
        {
          "internalType": "bool",
          "name": "",
          "type": "bool"
        }
      ],
      "payable": false,
      "stateMutability": "view",
      "type": "function"
    },
    {
      "constant": false,
      "inputs": [
        {
          "internalType": "uint256",
          "name": "_candidate",
          "type": "uint256"
        }
      ],
      "name": "vote",
      "outputs": [],
      "payable": false,
      "stateMutability": "nonpayable",
      "type": "function"
    }
  ],
  "bytecode": "0x608060405260006004553480156200001657600080fd5b5060405162000a1138038062000a118339810160408190526200003991620002d8565b6000815111620000665760405162461bcd60e51b81526004016200005d906200038e565b60405180910390fd5b816000815181106200007457fe5b6020026020010151600090805190602001906200009392919062000168565b5081600181518110620000a257fe5b602002602001015160019080519060200190620000c192919062000168565b5060005b8151811015620000fd57620000f4828281518110620000e057fe5b60200260200101516200010660201b60201c565b600101620000c5565b50505062000452565b6040805160608101825260045480825260208083018581526000848601819052928352600282529390912082518155925180519293926200014e926001850192019062000168565b506040919091015160029091015550600480546001019055565b828054600181600116156101000203166002900490600052602060002090601f016020900481019282601f10620001ab57805160ff1916838001178555620001db565b82800160010185558215620001db579182015b82811115620001db578251825591602001919060010190620001be565b50620001e9929150620001ed565b5090565b6200020a91905b80821115620001e95760008155600101620001f4565b90565b600082601f8301126200021f57600080fd5b8151620002366200023082620003cd565b620003a6565b81815260209384019390925082018360005b8381101562000278578151860162000261888262000282565b845250602092830192919091019060010162000248565b5050505092915050565b600082601f8301126200029457600080fd5b8151620002a56200023082620003ee565b91508082526020830160208301858383011115620002c257600080fd5b620002cf8382846200041f565b50505092915050565b60008060408385031215620002ec57600080fd5b82516001600160401b038111156200030357600080fd5b62000311858286016200020d565b92505060208301516001600160401b038111156200032e57600080fd5b6200033c858286016200020d565b9150509250929050565b60006200035560248362000416565b7f54686572652073686f756c642062652061746c6561737420312063616e64696481526330ba329760e11b602082015260400192915050565b60208082528101620003a08162000346565b92915050565b6040518181016001600160401b0381118282101715620003c557600080fd5b604052919050565b60006001600160401b03821115620003e457600080fd5b5060209081020190565b60006001600160401b038211156200040557600080fd5b506020601f91909101601f19160190565b90815260200190565b60005b838110156200043c57818101518382015260200162000422565b838111156200044c576000848401525b50505050565b6105af80620004626000396000f3fe608060405234801561001057600080fd5b50600436106100625760003560e01c80630121b93f1461006757806306fdde031461007c5780632d35a8a21461009a5780633477ee2e146100af5780637284e416146100d1578063a3ec138d146100d9575b600080fd5b61007a610075366004610383565b6100f9565b005b610084610193565b6040516100919190610471565b60405180910390f35b6100a2610221565b60405161009191906104a9565b6100c26100bd366004610383565b610227565b604051610091939291906104b7565b6100846102d2565b6100ec6100e736600461035d565b61032c565b6040516100919190610463565b3360009081526003602052604090205460ff16156101325760405162461bcd60e51b815260040161012990610499565b60405180910390fd5b60045481108015610141575060015b61015d5760405162461bcd60e51b815260040161012990610489565b336000908152600360209081526040808320805460ff191660019081179091559383526002918290529091200180549091019055565b6000805460408051602060026001851615610100026000190190941693909304601f810184900484028201840190925281815292918301828280156102195780601f106101ee57610100808354040283529160200191610219565b820191906000526020600020905b8154815290600101906020018083116101fc57829003601f168201915b505050505081565b60045481565b60026020818152600092835260409283902080546001808301805487519281161561010002600019011695909504601f81018590048502820185019096528581529094919390929091908301828280156102c25780601f10610297576101008083540402835291602001916102c2565b820191906000526020600020905b8154815290600101906020018083116102a557829003601f168201915b5050505050908060020154905083565b60018054604080516020600284861615610100026000190190941693909304601f810184900484028201840190925281815292918301828280156102195780601f106101ee57610100808354040283529160200191610219565b60036020526000908152604090205460ff1681565b803561034c8161054c565b92915050565b803561034c81610563565b60006020828403121561036f57600080fd5b600061037b8484610341565b949350505050565b60006020828403121561039557600080fd5b600061037b8484610352565b6103aa816104fe565b82525050565b60006103bb826104e6565b6103c581856104ea565b93506103d5818560208601610512565b6103de81610542565b9093019392505050565b60006103f5601a836104ea565b7f496e76616c69642063616e64696461746520746f20566f746521000000000000815260200192915050565b600061042e6018836104ea565b7f566f7465722068617320616c726561647920566f746564210000000000000000815260200192915050565b6103aa8161050f565b6020810161034c82846103a1565b6020808252810161048281846103b0565b9392505050565b6020808252810161034c816103e8565b6020808252810161034c81610421565b6020810161034c828461045a565b606081016104c5828661045a565b81810360208301526104d781856103b0565b905061037b604083018461045a565b5190565b90815260200190565b600061034c82610503565b151590565b6001600160a01b031690565b90565b60005b8381101561052d578181015183820152602001610515565b8381111561053c576000848401525b50505050565b601f01601f191690565b610555816104f3565b811461056057600080fd5b50565b6105558161050f56fea365627a7a72315820d261622830aa03bcf127336cd0ef518b7dc78d1cfbc6b6c8afcae2ea4f38d8036c6578706572696d656e74616cf564736f6c63430005100040",
  "source": "pragma solidity >=0.4.21 <0.6.0;\r\npragma experimental ABIEncoderV2;\r\n\r\ncontract Election {\r\n  //Election details will be stored in these variables\r\n  string public name;\r\n  string public description;\r\n\r\n  //Structure of candidate standing in the election\r\n  struct Candidate {\r\n    uint id;\r\n    string name;\r\n    uint voteCount;\r\n  }\r\n\r\n  //Storing candidates in a map\r\n  mapping(uint => Candidate) public candidates;\r\n\r\n  //Storing address of those voters who already voted\r\n  mapping(address => bool) public voters;\r\n\r\n  //Number of candidates in standing in the election\r\n  uint public candidatesCount = 0;\r\n\r\n  //Setting of variables and data, during the creation of election contract\r\n  constructor (string[] memory _nda, string[] memory _candidates) public {\r\n    require(_candidates.length > 0, \"There should be atleast 1 candidate.\");\r\n    name = _nda[0];\r\n    description = _nda[1];\r\n    for(uint i = 0; i < _candidates.length; i++) {\r\n      addCandidate(_candidates[i]);\r\n    }\r\n  }\r\n\r\n  //Private function to add a candidate\r\n  function addCandidate (string memory _name) private {\r\n    candidates[candidatesCount] = Candidate(candidatesCount, _name, 0);\r\n    candidatesCount ++;\r\n  }\r\n\r\n  //Public vote function for voting a candidate\r\n  function vote (uint _candidate) public {\r\n    require(!voters[msg.sender], \"Voter has already Voted!\");\r\n    require(_candidate < candidatesCount && _candidate >= 0, \"Invalid candidate to Vote!\");\r\n    voters[msg.sender] = true;\r\n    candidates[_candidate].voteCount++;\r\n  }\r\n}",
  "sourcePath": "C:\\Users\\Vivek hotti\\desktop\\advanced-evoting\\contracts\\Election.sol",
  "compiler": {
    "name": "solc",
    "version": "0.5.16+commit.9c3226ce.Emscripten.clang"
  },
  "schemaVersion": "3.4.3",
  "updatedAt": "2021-10-02T11:19:35.895Z",
  "devdoc": {
    "methods": {}
  },
  "userdoc": {
    "methods": {}
  }
}