{
  "contractName": "MainContract",
  "abi": [
    {
      "constant": true,
      "inputs": [
        {
          "internalType": "uint256",
          "name": "",
          "type": "uint256"
        }
      ],
      "name": "Elections",
      "outputs": [
        {
          "internalType": "address",
          "name": "",
          "type": "address"
        }
      ],
      "payable": false,
      "stateMutability": "view",
      "type": "function"
    },
    {
      "constant": true,
      "inputs": [],
      "name": "electionId",
      "outputs": [
        {
          "internalType": "uint256",
          "name": "",
          "type": "uint256"
        }
      ],
      "payable": false,
      "stateMutability": "view",
      "type": "function"
    },
    {
      "constant": false,
      "inputs": [
        {
          "internalType": "string[]",
          "name": "_nda",
          "type": "string[]"
        },
        {
          "internalType": "string[]",
          "name": "_candidates",
          "type": "string[]"
        }
      ],
      "name": "createElection",
      "outputs": [],
      "payable": false,
      "stateMutability": "nonpayable",
      "type": "function"
    }
  ],
  "bytecode": "0x60806040526000805534801561001457600080fd5b50610f51806100246000396000f3fe60806040523480156200001157600080fd5b5060043610620000465760003560e01c8063051364d4146200004b5780631e9598e2146200006d5780633b26ad7f1462000093575b600080fd5b62000055620000ac565b604051620000649190620003ef565b60405180910390f35b620000846200007e366004620002a2565b620000b2565b604051620000649190620003b6565b620000aa620000a436600462000232565b620000cd565b005b60005481565b6001602052600090815260409020546001600160a01b031681565b60008282604051620000df9062000146565b620000ec929190620003c6565b604051809103906000f08015801562000109573d6000803e3d6000fd5b50600080548152600160208190526040822080546001600160a01b0319166001600160a01b03949094169390931790925580549091019055505050565b610a1180620004fe83390190565b600082601f8301126200016657600080fd5b81356200017d620001778262000427565b620003ff565b81815260209384019390925082018360005b83811015620001bf5781358601620001a88882620001c9565b84525060209283019291909101906001016200018f565b5050505092915050565b600082601f830112620001db57600080fd5b8135620001ec620001778262000449565b915080825260208301602083018583830111156200020957600080fd5b620002168382846200049a565b50505092915050565b80356200022c81620004e3565b92915050565b600080604083850312156200024657600080fd5b823567ffffffffffffffff8111156200025e57600080fd5b6200026c8582860162000154565b925050602083013567ffffffffffffffff8111156200028a57600080fd5b620002988582860162000154565b9150509250929050565b600060208284031215620002b557600080fd5b6000620002c384846200021f565b949350505050565b6000620002d983836200036b565b9392505050565b620002eb8162000485565b82525050565b6000620002fe8262000478565b6200030a81856200047c565b9350836020820285016200031e8562000472565b8060005b858110156200035e57848403895281516200033e8582620002cb565b94506200034b8362000472565b60209a909a019992505060010162000322565b5091979650505050505050565b6000620003788262000478565b6200038481856200047c565b935062000396818560208601620004a6565b620003a181620004d9565b9093019392505050565b620002eb8162000497565b602081016200022c8284620002e0565b60408082528101620003d98185620002f1565b90508181036020830152620002c38184620002f1565b602081016200022c8284620003ab565b60405181810167ffffffffffffffff811182821017156200041f57600080fd5b604052919050565b600067ffffffffffffffff8211156200043f57600080fd5b5060209081020190565b600067ffffffffffffffff8211156200046157600080fd5b506020601f91909101601f19160190565b60200190565b5190565b90815260200190565b60006001600160a01b0382166200022c565b90565b82818337506000910152565b60005b83811015620004c3578181015183820152602001620004a9565b83811115620004d3576000848401525b50505050565b601f01601f191690565b620004ee8162000497565b8114620004fa57600080fd5b5056fe608060405260006004553480156200001657600080fd5b5060405162000a1138038062000a118339810160408190526200003991620002d8565b6000815111620000665760405162461bcd60e51b81526004016200005d906200038e565b60405180910390fd5b816000815181106200007457fe5b6020026020010151600090805190602001906200009392919062000168565b5081600181518110620000a257fe5b602002602001015160019080519060200190620000c192919062000168565b5060005b8151811015620000fd57620000f4828281518110620000e057fe5b60200260200101516200010660201b60201c565b600101620000c5565b50505062000452565b6040805160608101825260045480825260208083018581526000848601819052928352600282529390912082518155925180519293926200014e926001850192019062000168565b506040919091015160029091015550600480546001019055565b828054600181600116156101000203166002900490600052602060002090601f016020900481019282601f10620001ab57805160ff1916838001178555620001db565b82800160010185558215620001db579182015b82811115620001db578251825591602001919060010190620001be565b50620001e9929150620001ed565b5090565b6200020a91905b80821115620001e95760008155600101620001f4565b90565b600082601f8301126200021f57600080fd5b8151620002366200023082620003cd565b620003a6565b81815260209384019390925082018360005b8381101562000278578151860162000261888262000282565b845250602092830192919091019060010162000248565b5050505092915050565b600082601f8301126200029457600080fd5b8151620002a56200023082620003ee565b91508082526020830160208301858383011115620002c257600080fd5b620002cf8382846200041f565b50505092915050565b60008060408385031215620002ec57600080fd5b82516001600160401b038111156200030357600080fd5b62000311858286016200020d565b92505060208301516001600160401b038111156200032e57600080fd5b6200033c858286016200020d565b9150509250929050565b60006200035560248362000416565b7f54686572652073686f756c642062652061746c6561737420312063616e64696481526330ba329760e11b602082015260400192915050565b60208082528101620003a08162000346565b92915050565b6040518181016001600160401b0381118282101715620003c557600080fd5b604052919050565b60006001600160401b03821115620003e457600080fd5b5060209081020190565b60006001600160401b038211156200040557600080fd5b506020601f91909101601f19160190565b90815260200190565b60005b838110156200043c57818101518382015260200162000422565b838111156200044c576000848401525b50505050565b6105af80620004626000396000f3fe608060405234801561001057600080fd5b50600436106100625760003560e01c80630121b93f1461006757806306fdde031461007c5780632d35a8a21461009a5780633477ee2e146100af5780637284e416146100d1578063a3ec138d146100d9575b600080fd5b61007a610075366004610383565b6100f9565b005b610084610193565b6040516100919190610471565b60405180910390f35b6100a2610221565b60405161009191906104a9565b6100c26100bd366004610383565b610227565b604051610091939291906104b7565b6100846102d2565b6100ec6100e736600461035d565b61032c565b6040516100919190610463565b3360009081526003602052604090205460ff16156101325760405162461bcd60e51b815260040161012990610499565b60405180910390fd5b60045481108015610141575060015b61015d5760405162461bcd60e51b815260040161012990610489565b336000908152600360209081526040808320805460ff191660019081179091559383526002918290529091200180549091019055565b6000805460408051602060026001851615610100026000190190941693909304601f810184900484028201840190925281815292918301828280156102195780601f106101ee57610100808354040283529160200191610219565b820191906000526020600020905b8154815290600101906020018083116101fc57829003601f168201915b505050505081565b60045481565b60026020818152600092835260409283902080546001808301805487519281161561010002600019011695909504601f81018590048502820185019096528581529094919390929091908301828280156102c25780601f10610297576101008083540402835291602001916102c2565b820191906000526020600020905b8154815290600101906020018083116102a557829003601f168201915b5050505050908060020154905083565b60018054604080516020600284861615610100026000190190941693909304601f810184900484028201840190925281815292918301828280156102195780601f106101ee57610100808354040283529160200191610219565b60036020526000908152604090205460ff1681565b803561034c8161054c565b92915050565b803561034c81610563565b60006020828403121561036f57600080fd5b600061037b8484610341565b949350505050565b60006020828403121561039557600080fd5b600061037b8484610352565b6103aa816104fe565b82525050565b60006103bb826104e6565b6103c581856104ea565b93506103d5818560208601610512565b6103de81610542565b9093019392505050565b60006103f5601a836104ea565b7f496e76616c69642063616e64696461746520746f20566f746521000000000000815260200192915050565b600061042e6018836104ea565b7f566f7465722068617320616c726561647920566f746564210000000000000000815260200192915050565b6103aa8161050f565b6020810161034c82846103a1565b6020808252810161048281846103b0565b9392505050565b6020808252810161034c816103e8565b6020808252810161034c81610421565b6020810161034c828461045a565b606081016104c5828661045a565b81810360208301526104d781856103b0565b905061037b604083018461045a565b5190565b90815260200190565b600061034c82610503565b151590565b6001600160a01b031690565b90565b60005b8381101561052d578181015183820152602001610515565b8381111561053c576000848401525b50505050565b601f01601f191690565b610555816104f3565b811461056057600080fd5b50565b6105558161050f56fea365627a7a72315820d261622830aa03bcf127336cd0ef518b7dc78d1cfbc6b6c8afcae2ea4f38d8036c6578706572696d656e74616cf564736f6c63430005100040a365627a7a72315820ad7285b2056b57b49763e6511c3370107093ef98eb9e8607f5c87e8d269e70756c6578706572696d656e74616cf564736f6c63430005100040",
  "source": "pragma solidity >=0.4.21 <0.6.0;\r\npragma experimental ABIEncoderV2;\r\n\r\nimport './Election.sol';\r\n\r\ncontract MainContract {\r\n    uint public electionId = 0;\r\n    mapping (uint => address) public Elections;\r\n\r\n    function createElection (string[] memory _nda, string[] memory _candidates) public {\r\n        Election election = new Election(_nda, _candidates);\r\n        Elections[electionId] = address(election);\r\n        electionId++;\r\n    }\r\n}",
  "sourcePath": "C:\\Users\\Vivek hotti\\desktop\\advanced-evoting\\contracts\\MainContract.sol",
  "compiler": {
    "name": "solc",
    "version": "0.5.16+commit.9c3226ce.Emscripten.clang"
  },
  "schemaVersion": "3.4.3",
  "updatedAt": "2021-10-02T10:12:28.224Z",
  "devdoc": {
    "methods": {}
  },
  "userdoc": {
    "methods": {}
  }
}